:020000040800F2
:10000000600800209D010008A5010008A701000864
:10001000A9010008AB010008AD01000800000000C4
:10002000000000000000000000000000AF01000818
:10003000B101000800000000B30100083B2B0008DC
:10004000B7010008B7010008B7010008B7010008B0
:10005000B7010008B7010008B7010008B7010008A0
:10006000B9080008B7010008B70100083108000806
:10007000B7010008B7010008B7010008B701000880
:100080003D080008B7010008B7010008B7010008E3
:10009000B7010008B7010008B7010008B701000860
:1000A000B7010008B7010008B7010008B701000850
:1000B000B7010008B7010008B7010008B701000840
:1000C000B7010008B7010008B7010008B701000830
:1000D000B701000821370008B7010008B701000880
:1000E000B7080008B7010008B7010008B701000809
:1000F000B7010008B7010008B7010008B701000800
:10010000B7010008B7010008B7010008B7010008EF
:10011000B7010008B70100082D2C0008B70100083E
:1001200049080008B701000855080008B701000891
:10013000B70100080000000000000000B70100083F
:10014000B7010008B7010008B7010008B7010008AF
:10015000B7010008B7010008B7010008B70100089F
:10016000B7010008B7010008B7010008B70100088F
:10017000B7010008B70100080000000000000000FF
:10018000B7010008B7010008DFF80CD000F0FCF957
:100190000048004769390008600800200648804789
:1001A00006480047FEE7FEE7FEE7FEE7FEE7FEE75C
:1001B000FEE7FEE7FEE7FEE7D92B0008890100080D
:1001C0002DE9FE4F804681EA0300C00F0C460090E7
:1001D00021F0004123F00045B8EB0200A94105D20F
:1001E0004046214690461C460B46024623F00040FE
:1001F000104347D0270DC7F30A00C3F30A510290FA
:10020000401A019040286BDAC3F3130040F4801BBE
:100210000098924620B10023D2EB030A63EB0B0B4C
:1002200001985946C0F14002504600F01EF90646BA
:100230000D4650465946019A00F036F910EB080079
:100240006141002487EA115284EAE7731A4340D0DF
:10025000009A62B3019A012A4FEA075215DC001B8B
:1002600061EB02014FF0004202EA0752CDE9004281
:10027000001C41F5801132462B4600F036F903B0E0
:10028000BDE8F08F40462146F9E7001B61EB020113
:10029000001C41F5801300185B412018A2F50017DF
:1002A00047EB030140EAD570B6196D4111E06D08C6
:1002B0004FEA360645EAC0754FEA0752001B61EB6C
:1002C0000201001C41F5801149084FEA3000001975
:1002D000514132462B4603B0BDE8F04F00F0F6B86E
:1002E0000098012240000023D0EB020263EBE07390
:1002F000009821464FEAE074B8EB000061EB04017E
:10030000E9E783F000435BE781F0004158E72DE91E
:10031000FE4F81EA030404F0004421F00041009400
:100320004FF0000B23F0004350EA01045ED052EA84
:1003300003045BD0C3F30A54C1F30A552C44A4F25E
:10034000F3340194A0FB0254C1F3130141F4801172
:10035000C3F3130343F4801301FB024400FB034E79
:10036000840A970A44EA815447EA8357A4FB076842
:1003700002958D0A05FB07854FEA932C04FB0C546C
:100380002705029D4FEA065847EA1637B5EB0805E0
:100390006EEB070C870E920E47EA811742EA831232
:1003A000A7FB0201B6EB0B0164EB00042B0D43EA43
:1003B0000C335E1844EB1C50DA465146E7FB020151
:1003C000C5F313044FEA0B3343EA14534FEA0432E4
:1003D000019C43EA0603A4F10C040294009CCDE9BD
:1003E00000B400F082F803B0BDE8F08F00200146B1
:1003F000F9E70EB540F2334102910021CDE9001139
:100400000A460B4600F071F803B000BDC1F30A5272
:1004100010B5C1F3130140F2FF3341F480119A4249
:1004200001DA002010BD40F233439A42A2F2334277
:1004300003DC524200F028F810BD904010BD30B5EA
:100440000B46014600202022012409E021FA02F592
:100450009D4205D303FA02F5491B04FA02F528442C
:10046000151EA2F10102F1DC30BD202A04DB203A86
:1004700000FA02F1002070479140C2F1200320FAF7
:1004800003F3194390407047202A04DB203A21FAF5
:1004900002F00021704721FA02F3D040C2F120029D
:1004A0009140084319467047202A06DBCB17203AB3
:1004B00041FA02F043EAE07306E041FA02F3D04069
:1004C000C2F12002914008431946704710B5141E2E
:1004D00073F1000408DA401C41F1000192185B41FD
:1004E0001A4301D120F0010010BD2DE9F04D9246D4
:1004F0009B4611B1B1FA81F202E0B0FA80F22032EB
:100500009046FFF7B2FF04460F4640EA0A0041EA70
:100510000B0153465A46084313D0114653EA0100D3
:1005200019D0C8F140025046FFF7AEFF05460E460F
:10053000504659464246FFF798FF084305D0012030
:1005400004E020463946BDE8F08D0020054346EA28
:10055000E0762C4337430A986305E40AA0EB0800D1
:100560000022FD0A44EA47540A3002D50020014621
:10057000E9E7010510196941DDE9084500196941FC
:10058000BDE8F04DA2E70000064C074D06E0E0682C
:1005900040F0010394E8070098471034AC42F6D3CA
:1005A000FFF7F6FD643A0008843A000810B50146EA
:1005B000886B026C12F0500F05D0806B826CBDE826
:1005C000104008461047016C41F400710164016855
:1005D0008A6812F0405F17D18269AAB9CA6A12F418
:1005E000700F02D08A6852050ED44A6822F02002A9
:1005F0004A60016C21F480710164016CC90403D468
:10060000016C41F00101016400F0A2FA10BD10B5C7
:10061000806B40210164416C41F00401416400F0B1
:1006200099FA10BD10B5806B00F093FA10BD000070
:1006300010B54C490A6822F440320A600A684368DF
:100640001A430A6001684A6822F480724A600168AD
:100650004A68036942EA03224A6001684A6822F054
:1006600040724A6001684A6883681A434A600168B8
:100670008A6822F400628A6001688A68C3681A4343
:100680008A60816A6FF07062D14214D001688A6812
:1006900022F070628A6001688A68836A1A438A60FD
:1006A00001688A6822F040528A6001688A68C36AD9
:1006B0001A438A6009E001688A6822F070628A60E1
:1006C00001688A6822F040528A6001688A6822F0D4
:1006D00002028A6001688A68836942EA43028A608A
:1006E000016AB9B101684A6842F400624A6001686F
:1006F0004A6822F460424A6001684B68426A4FF4DB
:10070000604494FAA4F4521EB4FA84F4A240134351
:100710004B6004E001684A6822F400624A600168A4
:10072000CA6A22F47002CA620168CB6A828B521EC6
:1007300043EA0252CA6201688A6822F400728A603F
:1007400001688A68036B42EA43228A6001688A680A
:1007500022F480628A6001688A68406942EA8020E7
:10076000886010BD0423014030B41546064B4FF499
:100770008014DC6240EA41105863294630BC0222F2
:10078000024800F063BA000000200140C0020020CF
:1007900010B517484FF4C001C162164941630921E1
:1007A000016307221449154800F050FA1248846981
:1007B0002046FFF71EFE9FED121B53EC112BFFF797
:1007C000A6FD9FED111B53EC112BFFF7F9FCFFF772
:1007D0001DFE01460E484160A4F65B24E92C05D2BB
:1007E00001210170BDE8104002F06CBF10BD000097
:1007F0000020014062B13614C0030020C002002076
:100800007B14AE47E17A643FF4FDD478E926B13F2A
:1008100008000020044AD36A23F47003D3625063B3
:100820000122024800F012BA00200140C00200205C
:10083000014800F099BA000078010020014800F05A
:1008400093BA0000D0010020014800F08DBA0000EA
:1008500008030020014800F087BA00006802002069
:100860000168CAB2103A1823B2FBF3F2064B9B5C44
:1008700043656FF30901032A02D9091D016500E0F0
:100880000165006D70470000583A000830B50468F3
:10089000256825F480252560046863608368402B03
:1008A00004D0036899600068C26030BD03689A6034
:1008B0000068C16030BD704703494FF48070086024
:1008C000042000F0A3BB000080E200E02DE9F0412D
:1008D00007460E4600240B4D09E000F06BF8A8888F
:1008E00069884218AA80384600F083FB641CB44231
:1008F000F3DBB5F9040090FBF6F0E888A880BDE8CA
:10090000F08100001000002010B52DED028BB0EE3C
:10091000408A00F04FF8B0EE480A00F025F803488E
:1009200080ED040ABDEC028B10BD00001000002019
:1009300010B501210C2002F087F801210C2002F0F3
:1009400083F8D7280FD1012000F053FB03210D209D
:1009500002F0C0F80221132002F0BCF8BDE81040FC
:10096000322000F046BB10BD0F480021818090ED81
:10097000021ADFED0E0AB0F9021031EE601A00EE35
:10098000901AF8EEE00A71EE200AB6EE001A60EE58
:10099000810A9FED071A60EE800A90ED050A00EECD
:1009A000810A80ED050A7047100000200000000059
:1009B0000000003C10B50F4CB4F9020000EE100A24
:1009C000B8EEC00A84ED020A0221052002F03CF8CC
:1009D00020464178007841EA002000B26080B4F9F6
:1009E0000410401A00EE100AB8EEC00A84ED030AA3
:1009F00010BD00001000002078B50024009490F88D
:100A00003C20012A19D0012280F83C200A680725E1
:100A1000092A14D90368DE680A3A02EB42029540BB
:100A2000AE43DE600A788B680A3A02EB42029340DA
:100A30000268D5682B43D36011E0022078BD0368BB
:100A40001E6902EB42029540AE431E610A788B6834
:100A500002EB42029340026815692B4313614A6816
:100A60001F25072A13D203685E6B521E02EB820217
:100A70009540AE435E630A8893B20A79521E02EB38
:100A8000820293400268556B2B43536328E00D2A82
:100A900013D203681E6BD21F02EB82029540AE4355
:100AA0001E630A8893B20A79D21F02EB8202934036
:100AB0000268156B2B43136312E00368DE6A0D3A7C
:100AC00002EB82029540AE43DE620A8893B20A7955
:100AD0000D3A02EB820293400268D56A2B43D3623F
:100AE000184B02689A4208D10A68122A05D1D3F835
:100AF000042342F48002C3F8042302689A421DD101
:100B00000A68102A01D0112A18D1D3F8042342F41C
:100B10000002C3F80423096810290FD10A490B4ABF
:100B20000968B1FBF2F101EB81014900009102E09B
:100B30000099491E009100990029F9D180F83C40A4
:100B4000002078BD002001402800002040420F0016
:100B500070477047704770B504460026002C03D0DC
:100B6000206C002510B107E0012070BD656484F899
:100B70003C50204600F01AF8206CC00610D4206CBF
:100B800020F4885040F0020020642046FFF750FD1A
:100B90006564206C20F0020040F00100206400E059
:100BA000012684F83C50304670BD000070B586B018
:100BB00006461F493068884238D100251D48016823
:100BC00041F480710160006800F4807000900F2093
:100BD000019003240294039501A9174800F022FA1A
:100BE0000C2001900294039501A9144800F01AFA10
:100BF000022001900294039501A9114800F012FA15
:100C0000114C104820606560A560E560001520610A
:100C1000800060618000A0618011E061400220627C
:100C20006562204600F080F9B463A66306B070BD2B
:100C30000020014044380240000802400000024009
:100C4000000402401064024008030020F8B5044686
:100C500013460022009294F83C00012807D001209E
:100C600084F83C0020688568ED0702D014E002207B
:100C7000F8BD856845F0010585603548354D00684B
:100C8000B0FBF5F000EB4000009002E00098401E41
:100C9000009000980028F9D120688568ED0754D0AD
:100CA000256C40F20166B54345F4807525644068C3
:100CB000400505D5206C20F4005040F4805020649D
:100CC000206CC00404D5606C20F00600606400E075
:100CD000626484F83C20A26B1F48D063A26B1F485B
:100CE0001064A26B1E48906422686FF002001060CE
:100CF0002068426842F0806242602068826842F464
:100D00008072826020680A464C30A56B01462846F6
:100D100000F048F91349D1F80403C00607D0206851
:100D2000884212D1816811F0405F0AD00DE020683E
:100D3000816811F0405F08D1816841F08041816095
:100D400003E0816841F0804181600020F8BD00002F
:100D50002800002040420F00AD05000825060008CD
:100D60000F060008002001402DE9F0410446256DE2
:100D7000286894F85430082202FA03F108424FF030
:100D800004074FF0000618D020680168490714D501
:100D9000016821F00401016094F8540002FA00F1A6
:100DA000A960E06C40F00100E06484F8357084F8DC
:100DB0003460A16C09B120468847286894F8543003
:100DC000584A02FA03F1084218D02068416909061E
:100DD00014D5416921F08001416194F8540002FA70
:100DE00000F1A960E06C40F00200E06484F8357026
:100DF00084F83460A16C09B1204688472868494AC4
:100E000094F85430D21C02FA03F1084218D020683A
:100E10000168890714D5016821F00201016094F886
:100E2000540002FA00F1A960E06C40F00400E064B4
:100E300084F8357084F83460A16C09B12046884785
:100E4000286894F85430102202FA03F1084228D09E
:100E5000206803681B0724D503685F034FF0310344
:100E60000ED5A96020680168090302D484F83530E2
:100E700013E00068000310D5412084F835000CE031
:100E80000168C90503D4016821F00801016094F8E4
:100E900054008240AA6084F83530216C09B12046A4
:100EA0008847286894F85430202202FA03F1084257
:100EB00035D020680368DB0631D503685B0315D5A0
:100EC000A96020680168090306D4616C002926D056
:100ED0002046BDE8F0410847006800031FD5E16BDC
:100EE00000291CD02046BDE8F04108470168C9052B
:100EF00003D4016821F01001016094F8540082408D
:100F0000AA60E06CE064112084F8350084F8346055
:100F1000E16B002903D02046BDE8F0410847BDE859
:100F2000F08100000100800070B50446002C1AD04A
:100F3000616A022084F8350022681368184803406B
:100F4000D4E901052843D4E90356354328436569AC
:100F50002843A5692843E5692843256A284318439F
:100F6000042902D005E0012070BDD4E90B13194318
:100F7000084310602268506920F00700616A084346
:100F8000042901D1A16A084350612046FFF768FC9B
:100F90000020E064012084F83500002070BD0000CE
:100FA0003F8010F070B5044694F8340001281ED03C
:100FB000012084F83400022084F835002068056898
:100FC00025F0010505602046FFF760FC20680168F8
:100FD00041F01E0101602068416941F080014161DA
:100FE0002068016841F001010160002070BD02200D
:100FF00070BD31B500F006F9044600F003F9009920
:10100000001B8842F9D338BD7047000010B5044971
:101010000A68024202D00860FFF7F6FF10BD000028
:10102000143C01402DE9F84F0022DFF89891DFF8D9
:10103000948109F108094FF0010E4FF00F0C09F1EE
:10104000040A0EFA02F60B683340B34271D14C68C1
:10105000022C01D0122C11D1D40800EB84073D6A78
:101060005407E40E0CFA04FB25EA0B05D1F810B086
:101070000BFA04FB4BEA050BC7F820B007685400D5
:101080000325A540AF4391F804B00BF0030B0BFA16
:1010900004FB4BEA070BC0F800B04F68012F05D0E6
:1010A000022F03D0112F01D0122F11D18768AF4327
:1010B000D1F80CB00BFA04FB4BEA070BC0F808B0F0
:1010C0004768B7430E79C6F3001696403E43466024
:1010D000C668AE438D68A5403543C5604C68E400E2
:1010E0006AD5394C256845F480452560246804F4A8
:1010F00080440094354C22F003052E19D6F8087868
:101100009407250F0CFA05F4A743314CA04201D1F6
:10111000002429E02F4CA04201D1012424E02E4CD0
:10112000A04201D102241FE02C4CA04202D1032492
:101130001AE041E02A4CA04201D1042414E0294CD9
:10114000A04201D105240FE0274CA04201D1062482
:101150000AE0264CA04201D1072405E0244CA0421D
:1011600001D1082400E00924AC403C43C6F80848FB
:10117000D8F800409C434D68ED0300D51C43C8F8E7
:101180000040104D2D1D2C689C434E68B60300D5C1
:101190001C432C60D9F800409C434D68ED0200D5FB
:1011A0001C43C9F80040DAF800409C434D68AD028A
:1011B00000D51C43CAF80040521C102AFFF441AF6E
:1011C000BDE8F88F003C0140443802400030014047
:1011D000000002400004024000080240000C0240EF
:1011E000001002400014024000180240001C02409F
:1011F00000200240002A01D081617047090481610A
:10120000704700000148006870470000000000209F
:1012100002480168491C016070470000000000207E
:1012200010B50B48016841F400710160016841F498
:1012300080610160016841F480710160032000F069
:1012400067F8002000F006F800F015F8002010BD47
:10125000003C024010B5044600F024F94FF47A72C5
:10126000B0FBF2F000F06BFC00222146501E00F0B3
:101270002FF8002010BD10B5032000F049F800221F
:1012800011466FF00B0000F023F8002211466FF0BA
:101290000A0000F01DF8002211466FF0090000F06E
:1012A00017F800221146101F00F012F80022BDE8C6
:1012B00010401146501E00F00BB800F01F02012133
:1012C00091404009800000F1E020C0F80011704713
:1012D000F0B40D460D4B1B68C3F30223C3F10704A2
:1012E000042C00D90424191D072901D2002300E091
:1012F000DB1E012606FA04F1491E294099409E4052
:10130000761E16403143F0BC01F05BBA0CED00E0F4
:1013100000F00701054A10684FF6FF03184040EA45
:101320000120034908431060704700000CED00E005
:101330000000FA052DE9F04704460E46DFF85CA1EF
:10134000DAF8000006F0FF0900F00F00B0420AD200
:101350008AF80090DAF8000000F00F00B04202D0E6
:101360000120BDE8F0872078DFF83481800707D5B9
:10137000D8F80000A16820F0F0000843C8F8000089
:101380002078C0075DD0464960680839012808D038
:1013900002280BD0032809D0096889070BD4012043
:1013A000DFE70968890306D40120DAE709688901C3
:1013B00001D40120D5E7D8F8001021F00301014342
:1013C000C8F80010FFF71EFF0546606841F2883735
:1013D00001280BD0022817D003281ED02CE0FFF7DD
:1013E00011FF401BB84201D90320BAE7D8F800002A
:1013F000C0F381000128F2D123E0FFF703FF401B77
:10140000B84201D90320ACE7D8F80000C0F381004E
:101410000228F2D115E00320A3E7D8F80000FFF777
:10142000F1FE401BB842F8D9F5E7FFF7EBFE401B91
:10143000B84201D9032094E7D8F8000010F00C0F4F
:10144000F3D1DAF8000000F00F00B04209D98AF8B1
:101450000090DAF8000000F00F00B04201D0012047
:101460007FE72078400707D5D8F80000E16820F42E
:10147000E0500843C8F800002078000708D5D8F8E5
:101480000000216920F4604040EAC100C8F8000073
:101490000020FFF7DFFE002063E70000003C024071
:1014A0000838024010B500F043F808490968F022F6
:1014B00092FAA2F201F0F001B2FA82F2D140044AAB
:1014C000515CC8400349086010BD00000838024064
:1014D000483A00082800002010B5FFF7E3FF07494D
:1014E00009684FF4E05292FAA2F201F4E051B2FA24
:1014F00082F2D140024A515CC84010BD0838024017
:10150000483A000810B5FFF7CDFF074909684FF4C6
:10151000604292FAA2F201F46041B2FA82F2D14042
:10152000024A515CC84010BD08380240483A0008E1
:1015300030B51D48006810F00C011C481AD044104A
:10154000042916D0082915D1174A121F116801F075
:101550003F0113685D0247F6C0730CD5B4FBF1F090
:101560001168194093FAA3F3B3FA83F3D9404843BF
:101570000BE0204630BDB0FBF1F01168194093FA42
:10158000A3F3B3FA83F3D940484311684FF44032D0
:1015900092FAA2F201F44031B2FA82F2D140491C2F
:1015A0004900B0FBF1F030BD083802400024F400DF
:1015B0002DE9F84F0446DFF8FC822078A8F10407F3
:1015C000C007A7F1040539D0D8F80000C0F38100A6
:1015D000012808D0D8F80000C0F3810002280AD101
:1015E0003868400207D52868800327D5606828BB83
:1015F0000120BDE8F88FAF492079891F0870606825
:1016000070B1FFF7FFFD064606E0FFF7FBFD801B0C
:10161000642801D90320ECE728688003F5D50DE0A4
:10162000FFF7F0FD064606E0FFF7ECFD801B64289F
:1016300001D90320DDE728688003F5D42078DFF89E
:10164000789280074FF0000A52D5D8F800004FF08A
:10165000F80B10F00C0F08D0D8F80000C0F3810090
:10166000022816D13868400213D42868800704D5B0
:10167000E068012801D00120BBE728689BFAABF2A3
:101680002169B2FA82F220F0F80091400843286004
:101690002EE0E068E0B10120C9F80000FFF7B2FDDC
:1016A000064606E0FFF7AEFD801B022801D90320A5
:1016B0009FE728688007F5D528689BFAABF2216977
:1016C000B2FA82F220F0F8009140084328600FE05F
:1016D000C9F800A0FFF796FD064606E0FFF792FD69
:1016E000801B022801D9032083E728688007F5D4EE
:1016F0002078000729D5DFF8BCB1704861690BF18B
:101700006C0B89B101210160FFF77CFD064606E004
:10171000FFF778FD801B022801D9032069E7DBF879
:1017200000008007F4D510E0C0F800A0FFF76AFDC4
:10173000064606E0FFF766FD801B022801D903205C
:1017400057E7DBF800008007F4D4207840074CD539
:1017500058483830016841F080510160006800F05D
:1017600080500090DFF858B1DBF8000040F4807042
:10177000CBF80000FFF746FD064606E0FFF742FD06
:10178000801B022801D9032033E7DBF80000C005E5
:10179000F4D5DFF820B1207A0BF1680B8BF800004C
:1017A000A06888B1FFF72EFD064608E0FFF72AFD86
:1017B000811B41F28830814201D9032019E7DBF80F
:1017C00000008007F2D510E0FFF71CFD064608E098
:1017D000FFF718FD811B41F28830814201D90320B7
:1017E00007E7DBF800008007F2D4A069F0B3D8F86F
:1017F0000010C1F3810102295AD0022805D0C9F88E
:1018000060A0FFF7FFFC04464DE0C9F860A0FFF7B9
:10181000F9FC064606E0FFF7F5FC801B022801D91B
:101820000320E6E628688001F5D4D4E907010843DF
:1018300047F6C07292FAA2F2616AB2FA82F291405D
:10184000A26A4FF0FF3303EB52024FF4403393FA96
:10185000A3F3B3FA83F39A4011434FF07062084345
:1018600092FAA2F2B2FA82F2E16A00E01EE091403E
:10187000084338600120C9F86000FFF7C3FC044644
:1018800006E0FFF7BFFC001B022801D90320B0E6E9
:1018900028688001F5D509E0FFF7B4FC001B022899
:1018A00001D90320A5E628688001F5D40020A0E630
:1018B00001209EE60838024000004742800E474261
:1018C00000700040704770B50446002C06D04FF4FD
:1018D000005694F85100002510B106E0012070BDBB
:1018E00084F85050204600F037F8022084F8510068
:1018F0002068016821F040010160D4E9010108433A
:10190000D4E903121143084361690843218B01F4B0
:1019100000710843E1690843216A0843A16A08434A
:1019200021680860A069042101EA1040616A084347
:1019300021684860A06AB04202D12168E06A08616B
:101940002068C16921F40061C1616565012084F8E6
:101950005100002070BD0000F0B587B00646224956
:10196000306888423DD100242048016841F400419C
:101970000160006800F4004001904FF4E0500290D4
:10198000022003900494032005900620069002A9EB
:101990001748FFF747FB184D164828606C60AC608D
:1019A000EC602C616C61AC61EC614FF400372F622C
:1019B0006C622846FFF7B8FAF564AE630D487830DC
:1019C000583528606C604020A860EC602C616C6128
:1019D000AC61EC612F626C622846FFF7A5FAB56432
:1019E000AE6307B0F0BD0000003C0040403802404C
:1019F00000080240106002407801002070477047E4
:101A00002DE9F0410446002594F8500001280CD03F
:101A1000012084F8500094F85100002601280FD0CE
:101A20006068B0F5827F09D102E00220BDE8F08154
:101A3000A06818B994F85100042801D0022557E095
:101A400031B12AB123B194F85100012802D004E049
:101A500001254DE0052084F8510066652163A386C9
:101A6000E386A263A387E38726646664A06AB0F571
:101A7000005F0AD1206801684DF6FF7211400160D5
:101A80002068016841F40051016094F85100042875
:101A900032D0E16C1C480864E16C1C48C863E06CFF
:101AA0001B4F87642168E38F0C31A26BE06CFFF75A
:101AB00079FA2068416841F001014160A06C066438
:101AC000A06CC663A06C87642268E38E0C32216B25
:101AD000A06CFFF767FA20680168490603D4016823
:101AE00041F0400101602068416841F0020141601D
:101AF00084F85060284699E7E16C06480864E16C78
:101B00000548C863CBE7000057280008ED28000807
:101B10002B2800084D2800086128000870477047EE
:101B20004FF0E021042804D0086920F00400086187
:101B30007047086940F0040008617047704710B5AD
:101B4000401EB0F1807F01D3012010BD4FF0E02492
:101B500060610F21601700F034FE0020A0610720B3
:101B60002061002010BD10B5FFF7E8FF10BD7047E1
:101B7000704730B590F83820012A20D0012380F832
:101B80003830022280F839200268546824F070044A
:101B90005460026854680D682C435460026894686D
:101BA00024F0800494600268946849680C4394604F
:101BB00080F83930002180F83810002030BD022034
:101BC00030BD10B50446002C03D094F8390010B194
:101BD00007E0012010BD002084F83800204600F006
:101BE0000DF8022084F83900211D206801F00AF95F
:101BF000012084F83900002010BD000008B50068FD
:101C00000B49884212D10B48016841F01001016074
:101C1000006800F010000090002211463620FFF707
:101C200057FBBDE808403620FFF747BB08BD000062
:101C300000100040403802400168CA6842F00102CA
:101C4000CA600068016841F001010160002070472E
:101C50002DE9F04104460D46002C03D094F83900DC
:101C600018B108E00120BDE8F081002084F83800B8
:101C7000204600F03FF8022084F83900206881688F
:101C800021F007018160211D206801F0BBF8206868
:101C900081688269066A2B680B4340F203318A43EC
:101CA000AF69A96842EA0722114340F60C4291430A
:101CB0004FF2F0029143EF69EA6841EA07210A43D3
:101CC00029692F6A090141EA0731114326F02202EE
:101CD00022F088066A686D6946EA05152A43836022
:101CE0002068816120680262012084F839000020A8
:101CF000B9E7000030B587B00068174D00231749D9
:101D0000C0240222A84212D1086840F002000860F4
:101D1000086800F002000190029403920493059376
:101D2000069202A90E48FFF77DF907B030BD0D4DB0
:101D3000A842FAD1086840F004000860086800F082
:101D4000040001900294039204930593069202A961
:101D50000548FFF767F9E8E7000400404038024013
:101D600000000240000800400004024010B5044694
:101D70000029206811D0042914D00122002101F08B
:101D8000A3F801220421206801F09EF82068016870
:101D900041F001010160002010BD0122002101F08D
:101DA00093F8F3E70122042101F08EF8EEE7704783
:101DB00070B50446206801694FF00005C9438907E2
:101DC00016D4C168C943890712D4E91E01610120F4
:101DD000207620688069800703D02046FFF7E7FF60
:101DE00005E0204600F0B6F8204600F051F92576CF
:101DF00020680169C943490718D4C168C943490724
:101E000014D46FF0040101610220207620688069FB
:101E100010F4407F03D02046FFF7C9FF05E02046BD
:101E200000F098F8204600F033F925762068016923
:101E3000C943090717D4C168C943090713D46FF010
:101E400008010161042020762068C069800703D062
:101E50002046FFF7ACFF05E0204600F07BF8204667
:101E600000F016F9257620680169C943C90618D41F
:101E7000C168C943C90614D46FF01001016108207C
:101E800020762068C06910F4407F03D02046FFF719
:101E90008EFF05E0204600F05DF8204600F0F8F8DF
:101EA000257620680169C943C90708D1C168C943BB
:101EB000C90704D1891E0161204600F007F9206896
:101EC0000169C943090609D4C168C943090605D493
:101ED0006FF0800101612046FFF749FE206801692B
:101EE000C943490609D4C168C943490605D46FF0FE
:101EF00040010161204600F0EAF820680169C94309
:101F000089060BD4C168C943890607D46FF0200144
:101F100001612046BDE87040FFF72ABE70BD000099
:101F200000B585B00068094988420CD1C000009016
:101F3000022001900020029003900920049069463D
:101F40000348FFF76FF805B000BD0000001800401F
:101F500000040240704770B504460D4694F83800FE
:101F600001280DD0012684F83860022084F8390059
:101F700042B1042A1AD0082A2DD00C2A53D13EE0AF
:101F8000022070BD2946206800F0AAFF2068816900
:101F900041F0080181612068816921F004018161BB
:101FA000206881692A69114381613CE029462068E3
:101FB00000F0C6FF2068816941F4006181612068FA
:101FC000816921F480618161206881692A6941EA1F
:101FD0000221816127E02946206800F0E7FF2068A0
:101FE000C16941F00801C1612068C16921F00401A3
:101FF000C1612068C1692A691143C16113E02946A2
:10200000206801F007F82068C16941F40061C161EE
:102010002068C16921F48061C1612068C1692A69B1
:1020200041EA0221C161383466700020207070BD21
:1020300010B50446002C03D094F8390010B107E025
:10204000012010BD002084F83800204600F00CF874
:10205000022084F83900211D206800F0D3FE012001
:1020600084F83900002010BD08B500680649884290
:1020700008D10648016841F040010160006800F0A5
:102080004000009008BD00000018004040380240A9
:102090007047000010B504460122206800F014FFCC
:1020A00008482168814202D00748814203D1486C28
:1020B00040F4004048642068016841F0010101607B
:1020C000002010BD0000014000040140704770472F
:1020D000704738B5044621680868C0F30000CA6834
:1020E00002F48072002807D032B108684868009076
:1020F000E06B40F00100E0630868C0F340004A690B
:1021000002F0010238B132B1086848680090E06B13
:1021100040F00400E0630868C0F380004A6902F000
:10212000010238B132B1086848680090E06B40F0B5
:102130000200E0630868C0F3C0004A6902F00102CF
:1021400038B132B1086848680090E06B40F0080090
:10215000E0630868C0F34010C96801F0200118B1BD
:1021600011B1204600F08DFF20680168C1F3C01155
:10217000C06800F0800019B110B1204601F05AF992
:1021800020680168C1F38011C06800F0400019B1F7
:1021900010B1204600F068FFE06B002807D0202037
:1021A00084F8390084F83A002046FFF791FF38BDE3
:1021B00070B50446002C04D094F83900002510B105
:1021C00006E0012070BD84F83850204600F022F867
:1021D000242084F839002068C16821F40051C160CE
:1021E000204600F09DFF2068016921F490410161C3
:1021F0002068416921F02A0141612068C16841F4E9
:102200000051C160E563202084F8390084F83A0069
:10221000002070BD70B586B006461E493068884201
:1022200035D100251C48016841F0100101600068AB
:1022300000F0100000904FF4C06001900220029066
:1022400001200390032004900720059001A9134862
:10225000FEF7E8FE134C124820604FF0006060600B
:10226000A560E560401420616561A5618010E061B2
:10227000256265622046FEF757FE7463A66300225E
:1022800011462520FFF724F82520FFF716F806B0A1
:1022900070BD0000001001404438024000000240C0
:1022A000406402406802002070472DE9F041044676
:1022B0000D461F4694F83900202802D00220BDE8C0
:1022C000F0817DB172B194F8380001280CD0012062
:1022D00084F838000026E663212084F83900A284BF
:1022E000E2842AE00120EAE70220E8E7401EE084D9
:1022F000A068B0F5805F08D03B46002280212046D0
:1023000001F0CBF8A8B10320D9E73B460022802199
:10231000204601F0C2F808B10320D0E728882168E0
:10232000C0F308004860206908B16D1C05E0AD1CD1
:1023300003E0216815F8010B4860E08C0028D5D136
:102340003B4600224021204601F0A7F808B10320B7
:10235000B5E720203834607026700020AFE7704762
:102360007FB52248204901604FF48031416000214F
:1023700081600124046181610162C162C16006263D
:10238000C66104634161FEF7E6FB0D2000900194F5
:102390000424029469461548FEF72EFB0C20009099
:1023A0000225019569461148FEF726FB0095032595
:1023B000019569460D48FEF71FFB0B200090019424
:1023C00069460A48FEF718FB00950520019069460A
:1023D0000648FEF711FB0A20009001966946034863
:1023E000FEF70AFB7FBD000000200140C002002074
:1023F00008B51948016841F480010160016801F4E1
:1024000080010091016841F400110160006800F44E
:1024100000100090002211460B20FEF759FF0B2000
:10242000FEF74BFF002211461020FEF751FF10204F
:10243000FEF743FF002211463820FEF749FF3820FF
:10244000FEF73BFF002211463A20FEF741FFBDE8B0
:1024500008403A20FEF731BF303802402DE9F04104
:1024600086B000244348016841F00401016001681E
:1024700001F004010091016841F0800101600168F0
:1024800001F080010091016841F0010101600168E3
:1024900001F001010091016841F002010160006852
:1024A00000F002000090344E4EF2F0350022294632
:1024B0003046FEF79FFE314F002223213846FEF7BB
:1024C00099FEDFF8BC8000224FF44E714046FEF7C3
:1024D00091FE0195012502950394049401A93046CB
:1024E000FEF7A0FD2320019002950394049401A916
:1024F0003846FEF797FD0195224E0296039401A9F6
:102500004046FEF78FFD042001901F48029003947F
:1025100001A94046FEF786FDE80301900296039468
:1025200001A93846FEF77EFD08200190029503952B
:10253000049401A94046FEF775FD4FF44C700190DC
:1025400002950394049401A94046FEF76BFD002216
:1025500011460820FEF7BCFE0820FEF7AEFE002262
:1025600011462820FEF7B4FE2820FEF7A6FE06B08E
:10257000BDE8F0813038024000080240000002400F
:102580000004024000001110000021100C480B490B
:1025900001604FF48271416000218160C16001617E
:1025A00041614FF4007282611822C261016241628E
:1025B00081620A21C162FFF786B90000003C004039
:1025C0002001002010B588B0114810490160002496
:1025D0004460846041F63F71C1600461FFF728FDEB
:1025E000602001904FF4FA60029003940594002259
:1025F00001A90748FFF7AFFC042201A90448FFF72F
:10260000AAFC0348FFF78CFC08B010BD001800407E
:10261000E400002010B58CB011481049016000247E
:102620004460102181604FF6FF71C1600461012098
:102630000390049405900694079402210891099050
:102640000A940B9403A90648FFF702FB0194029435
:1026500001A90348FFF78DFA0CB010BD000400403B
:102660003000002010B58CB010480F4901600024E4
:10267000446084604FF6FF71C160046101200390E3
:102680000494059006940794089409900A940B9476
:1026900003A90648FFF7DCFA0194029401A9034854
:1026A000FFF767FA0CB010BD000800406C00002076
:1026B0001CB50A4808490160A821416000248460D3
:1026C0001321C160FFF77DFA009401946946034825
:1026D000FFF74FFA1CBD000000100040A8000020CA
:1026E0000848074901604FF4E131416000218160F1
:1026F000C16001610C2242618161C161FFF758BD77
:10270000001001402802002010B510480421026882
:10271000916202684FF47A71D162C160026800214F
:102720005163006881630948FFF7B4FC042107483E
:10273000FFF7B0FC18210648FFF718FB18210548E1
:10274000FFF714FBBDE8104000F006B8E4000020DD
:10275000300000206C000020124800210268516304
:102760000068816310480068416210480068416257
:102770000F48016041608160C160016141619FED6E
:102780000D0A80ED080A80ED0D0A80ED070A80ED44
:10279000060A80ED0B0A80ED100A80ED0A0A80ED32
:1027A000090A7047E4000020300000206C0000207F
:1027B000040400200000000081684160C16881605D
:1027C00070470907090E002806DA00F00F0000F133
:1027D000E02080F8141D704700F1E02080F800141C
:1027E000704738B504460B460092002280212046EF
:1027F00000F0C8F828B1606D40F02000606503204B
:1028000038BD002038BD4168B1F5827F0BD18168A9
:10281000B1F5004F02D0B1F5806F04D100680168B6
:1028200021F0400101600020704710B5806B016805
:102830004A6822F003024A60416D41F0100141658F
:10284000012180F85110FFF73DF810BD10B5806BE5
:10285000FFF7D5F810BD10B5806BFFF760F910BD1C
:102860007CB50546AC6B00260196FEF7CBFC2968CB
:102870000968C90536D4A16AB1F5005F10D10122FB
:10288000009064231146204600F07CF818B1606D7A
:1028900040F0020060652068C0680190BDF8040047
:1028A0002068416821F0030141602046FFF7ABFF3B
:1028B00018B1606D40F020006065E687012084F863
:1028C000510020688168C90606D5616D41F002019A
:1028D00061654FF6EF718160606D18B12046FEF7BB
:1028E000F1FF7CBD2046FFF789F87CBD2DE9FC4156
:1028F0000646B46B00270197FEF784FC0546306856
:102900000068C0053AD4A06AB0F5005F10D101227A
:10291000642311462046009500F034F818B1606D2C
:1029200040F0020060652068C0680190BDF90400B5
:102930002A4664212046FFF754FF18B1606D40F02D
:10294000200060652068416821F003014160E7864E
:10295000E787012084F8510020688168C90606D500
:10296000616D41F0020161654FF6EF718160606D4C
:1029700020B12046FEF7A6FFBDE8FC812046FFF708
:10298000CDF8F9E72DE9F04104460F4690461D4683
:10299000069E33E0681C31D025B1FEF733FC801B66
:1029A000A8422BD32068416821F0E00141606068B3
:1029B000B0F5827F0BD1A068B0F5004F02D0B0F522
:1029C000806F04D12068016821F040010160A06A95
:1029D000B0F5005F0AD1206801684DF6FF72114022
:1029E00001602068016841F4005101600120503409
:1029F0006070002020700320BDE8F08120688068AE
:102A000038404045C6D10020F6E73FB56C46DDE9C9
:102A1000010102AD884203D92946201D00F088F843
:102A2000DDE90201884203D903A9284600F080F8B5
:102A3000DDE90101884203D92946201D00F078F81C
:102A4000029804B030BD00002DE9F34182B00F467A
:102A5000FF2001909DF8080040F080000290DFF810
:102A60006480002208214046FEF7C4FB0123164A79
:102A700002A91648FEF7C4FF154D28688007FCD54B
:102A800028680006FCD400240F4E0CE03219012304
:102A900001A90E48FEF7B4FF2A689007FCD52A6802
:102AA0001006FCD4641CBC42F0DB28680006FCD491
:102AB000012208214046FEF79DFB307804B0BDE8B6
:102AC000F0810000000402401000002020010020DE
:102AD000083C004073B5124D002208212846FEF73D
:102AE00089FB01230F4A69460F48FEF789FF0F4C07
:102AF00020688007FCD520680106FCD40123094A20
:102B000001A90948FEF77CFF21688907FCD52068E8
:102B10000006FCD4012208212846FEF76BFB7CBD91
:102B2000000402401000002020010020083C00406A
:102B30000A6803680B600260704710B5FEF768FB17
:102B4000BDE81040FFF70FB830B593B0002520481E
:102B5000016841F080510160006800F080500190F0
:102B60001C48016841F480410160006800F4804025
:102B7000019001200790089002240D9480050E908A
:102B800004200F90A82110911194129007A8FEF72D
:102B90000FFD0F200290039404954FF4A050059070
:102BA000E0020690052102A8FEF7C4FBFEF77AFCBE
:102BB0004FF47A71B0FBF1F0FEF7C1FF0420FEF78D
:102BC000AFFF00221146501EFEF782FB13B030BD4E
:102BD00040380240007000401048016841F4700124
:102BE00001600F48016841F0010101600C4A0021B9
:102BF0000832116002680B4B1A400260031D0A4A3A
:102C00001A60026822F48022026005480C300160DC
:102C100002495806803908607047000088ED00E0DE
:102C200000380240FFFFF6FE103000242DE9F04787
:102C30006D4E3288DFF8B4816D4C6E4D6E4F4FF49F
:102C400000590B2A49D00ADC4FF48047012A12D0E0
:102C5000032A18D0062A24D0082A13D12EE00D2AE0
:102C60004ED0664F4FF40049102A61D0122A7DD011
:102C7000132AF2D196E0FDF78BFD0122394640463A
:102C8000FEF7B8FAA2E05A48FFF796FD584902202D
:102C90000C31FDF7BFFD002239464046FEF7AAFA87
:102CA00094E0012210214046FEF7A4FA94E80F00B8
:102CB000FFF7ABFE2968401A206087E04C481030CF
:102CC000FFF77AFD4A490B201C31FDF7A3FD0022D6
:102CD00010214046FEF78EFA78E0012202213846A4
:102CE000FEF788FA012249464046FEF783FA04F1CE
:102CF00010000FC8FFF789FE6968401A206165E07F
:102D00003B482030FFF758FD39483030FFF754FD7D
:102D10003A4A0C210D20FDF727FD002202213846FA
:102D2000FEF768FA002249464046FEF763FA4DE096
:102D3000012249464046FEF75DFA01222021404625
:102D4000FEF758FA3B68E3627868E063D4E9091259
:102D5000206AFFF75AFEA968401A206204F1300089
:102D60000FC8FFF752FEE968401A00E001E0206357
:102D70002CE01F484030FFF71FFD1D485030FFF783
:102D80001BFD1E4A0A2108320320FDF7EDFC00223C
:102D900049464046FEF72EFA002220214046FEF723
:102DA00029FA13E0BB68E364F868E065D4E911121E
:102DB000206CFFF72AFE2969401A206404F15000B4
:102DC0000FC8FFF722FE6969401A20653088401C51
:102DD00030803088322801D300203080BDE8F047B1
:102DE0000748FEF7E5BF000004000020000802408D
:102DF00060030020C003002000000240F403002014
:102E0000A80000202DE9F0410268244D244E254FF2
:102E1000DFF894C0254B4FF08048A84209D04045C8
:102E200007D0B04205D0B84203D0604501D09842E7
:102E300003D122F070044A682243A8421BD04045C7
:102E400019D0B04217D0B84215D0604513D098427F
:102E500011D0174CA0420ED0164CA0420BD0164CED
:102E6000A04208D0154CA04205D0154CA04202D07B
:102E7000144CA04203D122F44074CA682243026079
:102E80008A68C2620A688262A84201D0984201D16F
:102E90000969016301214161BDE8F0810000014041
:102EA0000004004000080040000C00400004014005
:102EB000004001400044014000480140001800402B
:102EC000001C00400020004010B501238B40046A24
:102ED0009C430462036A8A401343036210BD0000EE
:102EE00030B5026A22F001020262026A4368846914
:102EF00024F0700424F003050C682C4322F0020532
:102F00008A682A430C4DA84202D00C4DA8420DD12C
:102F100022F00802CD68154325F0040223F48073E3
:102F200023F400734D691D438B692B434360846117
:102F300049684163026230BD000001400004014065
:102F400030B5026A22F010020262036A42688469A4
:102F500024F4E04424F440740D6844EA052423F08A
:102F600020038D6843EA05130E4DA84202D00E4D92
:102F7000A84210D123F08003CD6843EA051323F063
:102F8000400322F4806222F400624D6942EA850225
:102F90008D6942EA85024260846149688163036207
:102FA00030BD0000000001400004014030B5026A5D
:102FB00022F480720262026A4368C46924F07004D9
:102FC00024F003050C682C4322F400728D6842EA59
:102FD00005220E4DA84202D00D4DA84210D122F478
:102FE0000062CD6842EA052222F4806223F4805315
:102FF00023F400534D6943EA05138D6943EA051331
:103000004360C4614968C163026230BD0000014091
:103010000004014030B5026A22F480520262046A60
:103020004268C36923F4E04323F440730D6843EA24
:10303000052324F400548D6844EA0534084DA84261
:1030400002D0084DA84204D122F480424D6942EAE0
:1030500085124260C36149680164046230BD0000AA
:10306000000001400004014010B50168CA6822F068
:103070004002CA60202180F83910FFF770F9002063
:1030800010BD10B590F83A10222901D0022010BDD1
:103090008168B1F5805F11D0016919B30168496891
:1030A00001F07F03816A4A1C82620B70C18D491E48
:1030B0000904090CC1851CD0002010BD816A026979
:1030C0003AB102685268D2B20A80816A491C8162B0
:1030D000ECE702685268C2F308020A80816A891C20
:1030E0008162E3E701684A68816A4B1C83620A7067
:1030F000DCE70168CA6822F02002CA600168CA6879
:1031000022F48072CA6001684A6922F001024A61B1
:10311000202180F83A10FFF7C7F8002010BD00000A
:103120002DE9F04104462068016921F44052E1682C
:10313000114301612068C26849F20C618A43236926
:10314000A168E569194363692B4319431143C160C1
:103150002068416921F44071A2690A434261E06933
:10316000B24AB34964253226B0F5004F59D02068E1
:10317000884201D090427DD1FEF7C4F900EBC00136
:1031800001EB001061688900B0FBF1F7FEF7BAF9B6
:1031900000EBC00101EB001061688900B0FBF1F0A9
:1031A000B0FBF5F06FF01801484307EB800006EB29
:1031B0000010B0FBF5F000F0F007FEF7A3F900EB0C
:1031C000C00101EB001061688900B0FBF1F0B0FBB9
:1031D000F5F007EB0017FEF795F900EBC00101EBE6
:1031E000001061688900B0FBF1F8FEF78BF900EB85
:1031F000C00101EB001061688900B0FBF1F0B0FB89
:10320000F5F06FF01801484308EB800006EB001062
:10321000B0FBF5F0216800F00F0038448860BDE88D
:10322000F0812068884201D0904256D1FEF76AF9B9
:1032300000EBC00101EB001061684900B0FBF1F048
:10324000B0FBF5F00701FEF75DF900EBC00101EB03
:10325000001061684900B0FBF1F8FEF753F900EB8C
:10326000C00101EB001061684900B0FBF1F0B0FB58
:10327000F5F000E086E06FF01801484308EB8000AD
:1032800006EBC000B0FBF5F000F0F80007EB4007DC
:10329000FEF738F900EBC00101EB0010616849004E
:1032A000B0FBF1F8FEF72EF900EBC00101EB0010C6
:1032B00061684900B0FBF1F0B0FBF5F06FF0180168
:1032C000484308EB800006EBC000B0FBF5F0216836
:1032D00000F0070038448860A1E7FEF7FDF800EB36
:1032E000C00101EB001061684900B0FBF1F0B0FBD8
:1032F000F5F00701FEF7F0F800EBC00101EB00105C
:1033000061684900B0FBF1F8FEF7E6F800EBC00198
:1033100001EB001061684900B0FBF1F0B0FBF5F083
:103320006FF01801484308EB800006EBC000B0FBCB
:10333000F5F000F0F80007EB4007FEF7CDF800EBE2
:10334000C00101EB001061684900B0FBF1F8FEF725
:10335000C3F800EBC00101EB001061684900B0FB4D
:10336000F1F0B0FBF5F06FF01801484308EB800076
:1033700006EBC000B0FBF5F0216800F00700384410
:1033800088604CE7FEF7A8F800EBC00101EB0010E5
:1033900061688900B0FBF1F7FEF79EF800EBC00111
:1033A00001EB001061688900B0FBF1F0B0FBF5F0B3
:1033B0006FF01801484307EB800006EB0010B0FBEC
:1033C000F5F000F0F007FEF787F800EBC00101EB25
:1033D000001061688900B0FBF1F0B0FBF5F007EB7D
:1033E0000017FEF779F800EBC00101EB00106168EF
:1033F0008900B0FBF1F8FEF76FF800EBC00101EBBC
:10340000001061688900B0FBF1F0B0FBF5F06FF0DF
:103410001801484308EB800006EB0010B0FBF5F004
:10342000216800F00F0038448860F8E6001401407D
:103430000010014090F83910212901D00220704776
:103440008168B1F5805F0CD0016A4A1C0262026893
:1034500009785160C18C491E0904090CC18410D03F
:1034600019E0016A02680988C1F308015160016925
:1034700019B1016A491C0162ECE7016A891C016209
:10348000E8E70168CA6822F08002CA600068C16883
:1034900041F04001C160002070472DE9F04704462B
:1034A0000F4692461D46FDF7ADFE06464FF0000959
:1034B0004FF02008BAF1000F25D04EE0681C22D052
:1034C00025B1FDF79FFE801BA8421CD92068C1686A
:1034D00021F08001C1602068C16821F02001C16035
:1034E0002068C16821F48071C1602068416921F0C1
:1034F0000101416184F8398084F83A8084F8389079
:103500000320BDE8F0872068006837EA0000D5D1C5
:1035100028E0681C21D025B1FDF774FE801BA8426D
:103520001BD92068C16821F08001C1602068C16892
:1035300021F02001C1602068C16821F48071C16060
:103540002068416921F00101416184F8398084F8E3
:103550003A8084F838900320D3E72068006837EA7F
:103560000000D6D00020CCE7074901220A60064AB5
:103570000832106004482438026842F001020260F8
:1035800008680028FCD170472414004010B5FFF7EC
:10359000A7F800F01BF800F077F800F05BF8094896
:1035A000C16821F08041C160C16841F00041C16043
:1035B0000548016821F010010160016841F0200117
:1035C000016010BD000002400C04024008B51F4815
:1035D000016841F001010160006800F00100009005
:1035E0001A48001F016841F001010160006800F005
:1035F0000100009015481438016841F00101016094
:10360000006800F001000090BFF34F8F40F20142CC
:1036100020210F4800F06AF94FF08040016821F046
:10362000010101604FF6E851C1628162C16A490837
:1036300081634FF440518161102101620121416198
:10364000016841F00101016008BD000044380240FA
:103650000000024008B50A48016841F020010160FD
:10366000006800F0200000900649542008600549D9
:10367000012014390860034908202839086008BD72
:103680004038024028140040AFF3008010B50B4CC6
:10369000012251022046FDF7ADFD01221102204614
:1036A000FDF7A8FD012220212046FDF7A3FD012200
:1036B000BDE8104011460248FDF79CBD00040240E1
:1036C0000000024010B50C4C00224FF4007120465F
:1036D000FDF790FD0022A1152046FDF78BFD00228D
:1036E00020212046FDF786FD0022BDE81040012183
:1036F0000248FDF77FBD00000004024000000240C8
:10370000064A012111600549083108600348243840
:10371000016841F00101016070470000241400407D
:103720000148FEF7D6BC0000280200200FB4054B6C
:1037300010B503A9044A029800F018F810BC5DF80F
:1037400014FB0000D53800082C00002002E008C857
:10375000121F08C1002AFAD170477047002001E00B
:1037600001C1121F002AFBD1704700002DE9FF4F55
:1037700089B09B460446002506E025280BD05A4612
:103780000B999047641C6D1C20780028F5D10DB072
:103790002846BDE8F08F0027B8460122474900E0DF
:1037A000074314F8013F203B02FA03F00842F7D127
:1037B00020782E2819D114F8010F47F004072A2881
:1037C0000ED06FF02F022078A0F1300109290CD81B
:1037D00008EB880102EB410100EB0108641CF2E7F1
:1037E0000A98641C50F8048B0A9020780028CED0E8
:1037F000642808D0692806D075281ED05A460B992F
:1038000090476D1C58E00A994FF00A0901C90A91C6
:10381000002802DA40422D2102E0390504D52B218F
:103820008DF82010012103E0F90704D02021F7E7EB
:103830008A4608AE0DE00021FAE70A994FF00A091E
:1038400001C90A91F7E74946FCF7F9FD303106F85E
:10385000011D0028F7D1ADEB060000F12009780723
:1038600001D44FF00108C84502DDA8EB090000E0D3
:1038700000208046002706E008A85A46C05D0B9944
:1038800090476D1C7F1C5745F6DB04E030205A46FC
:103890000B9990476D1CB8F10001A8F10108F5DC07
:1038A00005E016F8010B5A460B9990476D1CB9F1CB
:1038B0000001A9F10109F4DC641C65E70928010095
:1038C000002102E0491CC9B24008C207FAD00846EC
:1038D0007047000013B54FF6FF7301226946024896
:1038E000FEF7E3FC00981CBD2802002030B503461B
:1038F00008461446E10503D559680143596002E0C2
:10390000596881435960FFF7DBFF40000321814084
:10391000C9431A680A40C4F34125854015431D6018
:10392000DA680A40C4F3011585401543DD609A68E2
:103930000A40C4F3811181401143996003F12001D1
:103940004FF6FF7202EA40001C2802D9203880B2EC
:10395000091D0A680F2383409A4304F00F03834034
:1039600013430B6030BD00000EB5FDF759FCFFF7A7
:10397000EBF8FEF773FDFEF73BFDFEF7F1FCFEF7FB
:1039800005FEFEF747FEFEF76DFEFEF71BFEFEF797
:10399000A7FEFEF78DFEFEF7B7FEFFF7F7FDFCF77B
:1039A000C7FF64210120FCF791FF1548FEF744F999
:1039B00014A0FFF7BBFE9FED190AFCF7A5FF1848FE
:1039C000DFED180A90ED000A20EE200ABCEEC00AD6
:1039D00010EE100A80B2FFF793FE134C4FF47A7585
:1039E0002846FFF7C1FD236D226B216CCDE9002332
:1039F00002910EA0236A22692168FFF797FEEFE784
:103A0000A80000200D0A0A437A656B616D206E6183
:103A10002073746172740D0A000000006F12833A03
:103A2000603A0008002474496003002025640920DE
:103A300025640920256409202564092025640920BE
:103A40002564090D0A0000000000000001020304C3
:103A500001020304060708090006101600061016E6
:103A60006F12833A843A0008000000203000000002
:103A70004C370008B43A000830000020300800003D
:103A80005C3700080000000000000000000000009B
:103A90000000000000000000000000000000000026
:103AA0000000000000000000000000000024F400FE
:043AB0000000000012
:040000050800018965
:00000001FF
